{
  "contractName": "Notary",
  "abi": [
    {
      "inputs": [],
      "payable": false,
      "stateMutability": "nonpayable",
      "type": "constructor",
      "signature": "constructor"
    },
    {
      "anonymous": false,
      "inputs": [
        {
          "indexed": false,
          "name": "_ipfsHash",
          "type": "string"
        },
        {
          "indexed": false,
          "name": "_address",
          "type": "address"
        }
      ],
      "name": "ipfsSent",
      "type": "event",
      "signature": "0xd3896131bca4353bcda578f36768163e2ca77cefb2988be6c4e81939ca298ac0"
    },
    {
      "anonymous": false,
      "inputs": [
        {
          "indexed": false,
          "name": "response",
          "type": "string"
        }
      ],
      "name": "inboxResponse",
      "type": "event",
      "signature": "0x2974ec83b4de9f76155d0c3e88bd3c0645c56c1795807f37d3f9e95caafeee57"
    },
    {
      "anonymous": false,
      "inputs": [
        {
          "indexed": false,
          "name": "ipfsEth",
          "type": "string"
        }
      ],
      "name": "returnipfsHash",
      "type": "event",
      "signature": "0xb605c9900ceb7c4fa4fbdc2ab62e2a8bd57020f750bbb045fc42570abc1daabc"
    },
    {
      "constant": false,
      "inputs": [
        {
          "name": "x",
          "type": "string"
        }
      ],
      "name": "setHash",
      "outputs": [],
      "payable": false,
      "stateMutability": "nonpayable",
      "type": "function",
      "signature": "0x1ed83fd4"
    },
    {
      "constant": false,
      "inputs": [
        {
          "name": "ipfsEth",
          "type": "string"
        }
      ],
      "name": "getHash",
      "outputs": [
        {
          "name": "x",
          "type": "string"
        }
      ],
      "payable": false,
      "stateMutability": "nonpayable",
      "type": "function",
      "signature": "0x5b6beeb9"
    },
    {
      "constant": false,
      "inputs": [
        {
          "name": "_address",
          "type": "address"
        },
        {
          "name": "_ipfsHash",
          "type": "string"
        }
      ],
      "name": "sendIPFS",
      "outputs": [],
      "payable": false,
      "stateMutability": "nonpayable",
      "type": "function",
      "signature": "0x6bfc70e2"
    },
    {
      "constant": false,
      "inputs": [],
      "name": "checkInbox",
      "outputs": [],
      "payable": false,
      "stateMutability": "nonpayable",
      "type": "function",
      "signature": "0x5c23d56f"
    },
    {
      "constant": false,
      "inputs": [],
      "name": "toggleContractActive",
      "outputs": [],
      "payable": false,
      "stateMutability": "nonpayable",
      "type": "function",
      "signature": "0x1385d24c"
    },
    {
      "constant": false,
      "inputs": [],
      "name": "deposit",
      "outputs": [],
      "payable": false,
      "stateMutability": "nonpayable",
      "type": "function",
      "signature": "0xd0e30db0"
    },
    {
      "constant": false,
      "inputs": [],
      "name": "withdraw",
      "outputs": [],
      "payable": false,
      "stateMutability": "nonpayable",
      "type": "function",
      "signature": "0x3ccfd60b"
    }
  ],
  "bytecode": "0x60806040526000600160006101000a81548160ff02191690831515021790555034801561002b57600080fd5b50610b158061003b6000396000f3fe608060405260043610610083576000357c0100000000000000000000000000000000000000000000000000000000900463ffffffff1680631385d24c146100885780631ed83fd41461009f5780633ccfd60b146101675780635b6beeb91461017e5780635c23d56f146102bf5780636bfc70e2146102d6578063d0e30db0146103be575b600080fd5b34801561009457600080fd5b5061009d6103d5565b005b3480156100ab57600080fd5b50610165600480360360208110156100c257600080fd5b81019080803590602001906401000000008111156100df57600080fd5b8201836020820111156100f157600080fd5b8035906020019184600183028401116401000000008311171561011357600080fd5b91908080601f016020809104026020016040519081016040528093929190818152602001838380828437600081840152601f19601f82011690508083019250505050505050919291929050505061045c565b005b34801561017357600080fd5b5061017c610476565b005b34801561018a57600080fd5b50610244600480360360208110156101a157600080fd5b81019080803590602001906401000000008111156101be57600080fd5b8201836020820111156101d057600080fd5b803590602001918460018302840111640100000000831117156101f257600080fd5b91908080601f016020809104026020016040519081016040528093929190818152602001838380828437600081840152601f19601f820116905080830192505050505050509192919290505050610486565b6040518080602001828103825283818151815260200191508051906020019080838360005b83811015610284578082015181840152602081019050610269565b50505050905090810190601f1680156102b15780820380516001836020036101000a031916815260200191505b509250505060405180910390f35b3480156102cb57600080fd5b506102d46105c6565b005b3480156102e257600080fd5b506103bc600480360360408110156102f957600080fd5b81019080803573ffffffffffffffffffffffffffffffffffffffff1690602001909291908035906020019064010000000081111561033657600080fd5b82018360208201111561034857600080fd5b8035906020019184600183028401116401000000008311171561036a57600080fd5b91908080601f016020809104026020016040519081016040528093929190818152602001838380828437600081840152601f19601f82011690508083019250505050505050919291929050505061081d565b005b3480156103ca57600080fd5b506103d3610a34565b005b6001809054906101000a900473ffffffffffffffffffffffffffffffffffffffff1673ffffffffffffffffffffffffffffffffffffffff163373ffffffffffffffffffffffffffffffffffffffff1614151561043057600080fd5b600160009054906101000a900460ff1615600160006101000a81548160ff021916908315150217905550565b8060009080519060200190610472929190610a44565b5050565b600160009054906101000a905050565b60607fb605c9900ceb7c4fa4fbdc2ab62e2a8bd57020f750bbb045fc42570abc1daabc826040518080602001828103825283818151815260200191508051906020019080838360005b838110156104ea5780820151818401526020810190506104cf565b50505050905090810190601f1680156105175780820380516001836020036101000a031916815260200191505b509250505060405180910390a160008054600181600116156101000203166002900480601f0160208091040260200160405190810160405280929190818152602001828054600181600116156101000203166002900480156105ba5780601f1061058f576101008083540402835291602001916105ba565b820191906000526020600020905b81548152906001019060200180831161059d57829003601f168201915b50505050509050919050565b6060600260003373ffffffffffffffffffffffffffffffffffffffff1673ffffffffffffffffffffffffffffffffffffffff1681526020019081526020016000208054600181600116156101000203166002900480601f01602080910402602001604051908101604052809291908181526020018280546001816001161561010002031660029004801561069b5780601f106106705761010080835404028352916020019161069b565b820191906000526020600020905b81548152906001019060200180831161067e57829003601f168201915b50505050509050600081511415610719577f2974ec83b4de9f76155d0c3e88bd3c0645c56c1795807f37d3f9e95caafeee5760405180806020018281038252600b8152602001807f456d70747920496e626f7800000000000000000000000000000000000000000081525060200191505060405180910390a161081a565b6020604051908101604052806000815250600260003373ffffffffffffffffffffffffffffffffffffffff1673ffffffffffffffffffffffffffffffffffffffff168152602001908152602001600020908051906020019061077c929190610a44565b507f2974ec83b4de9f76155d0c3e88bd3c0645c56c1795807f37d3f9e95caafeee57816040518080602001828103825283818151815260200191508051906020019080838360005b838110156107df5780820151818401526020810190506107c4565b50505050905090810190601f16801561080c5780820380516001836020036101000a031916815260200191505b509250505060405180910390a15b50565b600260008373ffffffffffffffffffffffffffffffffffffffff1673ffffffffffffffffffffffffffffffffffffffff1681526020019081526020016000208054600181600116156101000203166002900480601f0160208091040260200160405190810160405280929190818152602001828054600181600116156101000203166002900480156108f05780601f106108c5576101008083540402835291602001916108f0565b820191906000526020600020905b8154815290600101906020018083116108d357829003601f168201915b505050505060608190506000815114151561090a57600080fd5b82600260008673ffffffffffffffffffffffffffffffffffffffff1673ffffffffffffffffffffffffffffffffffffffff168152602001908152602001600020908051906020019061095d929190610a44565b507fd3896131bca4353bcda578f36768163e2ca77cefb2988be6c4e81939ca298ac0838560405180806020018373ffffffffffffffffffffffffffffffffffffffff1673ffffffffffffffffffffffffffffffffffffffff168152602001828103825284818151815260200191508051906020019080838360005b838110156109f35780820151818401526020810190506109d8565b50505050905090810190601f168015610a205780820380516001836020036101000a031916815260200191505b50935050505060405180910390a150505050565b600160009054906101000a905050565b828054600181600116156101000203166002900490600052602060002090601f016020900481019282601f10610a8557805160ff1916838001178555610ab3565b82800160010185558215610ab3579182015b82811115610ab2578251825591602001919060010190610a97565b5b509050610ac09190610ac4565b5090565b610ae691905b80821115610ae2576000816000905550600101610aca565b5090565b9056fea165627a7a7230582047e85759aa238a7f5b6b816a1ca18e832352322256eb34f5e11211e0d10db6ca0029",
  "source": "pragma solidity ^0.5.0;\nimport \"./Ownable.sol\";\n\n/// @author Chris Spannos\n/// @title Decentalized Notary\ncontract Notary {\n    string ipfsHash;\n    ///For circuitbreaker\n    bool private stopped = false;\n    address private owner;\n\n    /// Grabs the IPFS file hash based on the address.\n    mapping (address => string) ipfsInbox;\n\n    /// ipfsSent sends the IPFS file hash to a recipient.\n    event ipfsSent(string _ipfsHash, address _address);\n\n    /// inboxResponse sends a notification to the user that they have a message waiting.\n    event inboxResponse(string response);\n\n    /// returnipfsHash calls the IPFS file hash for display in the TX receipt.\n    event returnipfsHash(string ipfsEth);\n\n    /// For circuitbreaker\n    modifier isAdmin() {\n        require(msg.sender == owner);\n        _;\n    }\n\n    /// Modifiers are used here to check the account state in the function 'sendIPFS' for account notificaitons.\n    modifier notFull (string memory _string) {\n      bytes memory stringTest = bytes(_string);\n      require (stringTest.length == 0);\n      _;\n    }\n\n    /// This empty constructor is used to initialize the contract.\n    constructor() public {\n\n    }\n\n    /// Store 'x' (the IPFS file hash) in the contract state.\n    /// @param x the new value to store.\n    /// @dev stores the IPFS file hash in the state variable 'setHash'.\n    function setHash(string memory x) public {\n      ipfsHash = x;\n    }\n\n    /// Return 'x' (the IPFS file hash) from the contract memory.\n    /// @param x is the verified IPFS file hash.\n    /// @dev returns the IPFS file hash when state variable 'getHash is called'.\n    function getHash(string memory ipfsEth) public returns (string memory x) {\n      emit returnipfsHash(ipfsEth);\n      return ipfsHash;\n    }\n\n    /// The IPFS file hash is sent to a recipeint account.\n    /// @param _ipfsHash is the value called from the contact state.\n    /// @dev sendIPFS sends the file hash to '_address'.\n    function sendIPFS(address _address, string memory _ipfsHash)\n        notFull(ipfsInbox[_address])\n        public\n    {\n       ipfsInbox[_address] = _ipfsHash;\n       emit ipfsSent(_ipfsHash, _address);\n    }\n\n    /// This function checks the value of 'ipfs_hash' to see if it is storing bytes.\n    /// If the value is storing 0 > bytes it emits a notificaitons.\n    /// @dev 'checkInbox checks 'ipfs_hash' and, if there is 0 > bytes emits and responce to the account checking.\n    function checkInbox()\n        public\n    {\n        string memory ipfs_hash = ipfsInbox[msg.sender];\n        if(bytes(ipfs_hash).length == 0) {\n            emit inboxResponse(\"Empty Inbox\");\n        } else {\n            ipfsInbox[msg.sender] = \"\";\n            emit inboxResponse(ipfs_hash);\n        }\n    }\n    /// For circuitbreaker\n    function toggleContractActive() isAdmin public {\n        // You can add an additional modifier that restricts stopping a contract to be based on another action, such as a vote of users\n        stopped = !stopped;\n    }\n    /// For circuitbreaker\n    modifier stopInEmergency { if (!stopped) _; }\n    modifier onlyInEmergency { if (stopped) _; }\n\n    /// For circuitbreaker\n    function deposit() stopInEmergency public {\n        // some code\n    }\n\n    /// For circuitbreaker\n    function withdraw() onlyInEmergency public {\n        // some code\n    }\n\n}\n",
  "sourcePath": "/home/shevek/Documents/blockchain/decentralized-notary/contracts/Notary.sol",
  "compiler": {
    "name": "solc",
    "version": "0.5.0+commit.1d4f565a.Emscripten.clang"
  },
  "schemaVersion": "3.0.1",
  "updatedAt": "2019-01-28T02:04:08.972Z",
  "devdoc": {
    "author": "Chris Spannos",
    "methods": {
      "checkInbox()": {
        "details": "'checkInbox checks 'ipfs_hash' and, if there is 0 > bytes emits and responce to the account checking."
      },
      "getHash(string)": {
        "details": "returns the IPFS file hash when state variable 'getHash is called'.",
        "params": {
          "x": "is the verified IPFS file hash."
        }
      },
      "sendIPFS(address,string)": {
        "details": "sendIPFS sends the file hash to '_address'.",
        "params": {
          "_ipfsHash": "is the value called from the contact state."
        }
      },
      "setHash(string)": {
        "details": "stores the IPFS file hash in the state variable 'setHash'.",
        "params": {
          "x": "the new value to store."
        }
      }
    },
    "title": "Decentalized Notary"
  },
  "userdoc": {
    "methods": {
      "checkInbox()": {
        "notice": "This function checks the value of 'ipfs_hash' to see if it is storing bytes. If the value is storing 0 > bytes it emits a notificaitons."
      },
      "constructor": "This empty constructor is used to initialize the contract.",
      "deposit()": {
        "notice": "For circuitbreaker"
      },
      "getHash(string)": {
        "notice": "Return 'x' (the IPFS file hash) from the contract memory."
      },
      "sendIPFS(address,string)": {
        "notice": "The IPFS file hash is sent to a recipeint account."
      },
      "setHash(string)": {
        "notice": "Store 'x' (the IPFS file hash) in the contract state."
      },
      "toggleContractActive()": {
        "notice": "For circuitbreaker"
      },
      "withdraw()": {
        "notice": "For circuitbreaker"
      }
    }
  }
}