{
  "contractName": "Notary",
  "abi": [
    {
      "inputs": [],
      "payable": false,
      "stateMutability": "nonpayable",
      "type": "constructor",
      "signature": "constructor"
    },
    {
      "anonymous": false,
      "inputs": [
        {
          "indexed": false,
          "name": "_ipfsHash",
          "type": "string"
        },
        {
          "indexed": false,
          "name": "_address",
          "type": "address"
        }
      ],
      "name": "ipfsSent",
      "type": "event",
      "signature": "0xd3896131bca4353bcda578f36768163e2ca77cefb2988be6c4e81939ca298ac0"
    },
    {
      "anonymous": false,
      "inputs": [
        {
          "indexed": false,
          "name": "response",
          "type": "string"
        }
      ],
      "name": "inboxResponse",
      "type": "event",
      "signature": "0x2974ec83b4de9f76155d0c3e88bd3c0645c56c1795807f37d3f9e95caafeee57"
    },
    {
      "anonymous": false,
      "inputs": [
        {
          "indexed": false,
          "name": "ipfsEth",
          "type": "string"
        }
      ],
      "name": "returnipfsHash",
      "type": "event",
      "signature": "0xb605c9900ceb7c4fa4fbdc2ab62e2a8bd57020f750bbb045fc42570abc1daabc"
    },
    {
      "constant": false,
      "inputs": [
        {
          "name": "x",
          "type": "string"
        }
      ],
      "name": "setHash",
      "outputs": [],
      "payable": false,
      "stateMutability": "nonpayable",
      "type": "function",
      "signature": "0x1ed83fd4"
    },
    {
      "constant": false,
      "inputs": [
        {
          "name": "ipfsEth",
          "type": "string"
        }
      ],
      "name": "getHash",
      "outputs": [
        {
          "name": "x",
          "type": "string"
        }
      ],
      "payable": false,
      "stateMutability": "nonpayable",
      "type": "function",
      "signature": "0x5b6beeb9"
    },
    {
      "constant": false,
      "inputs": [
        {
          "name": "_address",
          "type": "address"
        },
        {
          "name": "_ipfsHash",
          "type": "string"
        }
      ],
      "name": "sendIPFS",
      "outputs": [],
      "payable": false,
      "stateMutability": "nonpayable",
      "type": "function",
      "signature": "0x6bfc70e2"
    },
    {
      "constant": false,
      "inputs": [],
      "name": "checkInbox",
      "outputs": [],
      "payable": false,
      "stateMutability": "nonpayable",
      "type": "function",
      "signature": "0x5c23d56f"
    }
  ],
  "bytecode": "0x608060405234801561001057600080fd5b50610a08806100206000396000f3fe608060405260043610610062576000357c0100000000000000000000000000000000000000000000000000000000900463ffffffff1680631ed83fd4146100675780635b6beeb91461012f5780635c23d56f146102705780636bfc70e214610287575b600080fd5b34801561007357600080fd5b5061012d6004803603602081101561008a57600080fd5b81019080803590602001906401000000008111156100a757600080fd5b8201836020820111156100b957600080fd5b803590602001918460018302840111640100000000831117156100db57600080fd5b91908080601f016020809104026020016040519081016040528093929190818152602001838380828437600081840152601f19601f82011690508083019250505050505050919291929050505061036f565b005b34801561013b57600080fd5b506101f56004803603602081101561015257600080fd5b810190808035906020019064010000000081111561016f57600080fd5b82018360208201111561018157600080fd5b803590602001918460018302840111640100000000831117156101a357600080fd5b91908080601f016020809104026020016040519081016040528093929190818152602001838380828437600081840152601f19601f820116905080830192505050505050509192919290505050610389565b6040518080602001828103825283818151815260200191508051906020019080838360005b8381101561023557808201518184015260208101905061021a565b50505050905090810190601f1680156102625780820380516001836020036101000a031916815260200191505b509250505060405180910390f35b34801561027c57600080fd5b506102856104c9565b005b34801561029357600080fd5b5061036d600480360360408110156102aa57600080fd5b81019080803573ffffffffffffffffffffffffffffffffffffffff169060200190929190803590602001906401000000008111156102e757600080fd5b8201836020820111156102f957600080fd5b8035906020019184600183028401116401000000008311171561031b57600080fd5b91908080601f016020809104026020016040519081016040528093929190818152602001838380828437600081840152601f19601f820116905080830192505050505050509192919290505050610720565b005b8060009080519060200190610385929190610937565b5050565b60607fb605c9900ceb7c4fa4fbdc2ab62e2a8bd57020f750bbb045fc42570abc1daabc826040518080602001828103825283818151815260200191508051906020019080838360005b838110156103ed5780820151818401526020810190506103d2565b50505050905090810190601f16801561041a5780820380516001836020036101000a031916815260200191505b509250505060405180910390a160008054600181600116156101000203166002900480601f0160208091040260200160405190810160405280929190818152602001828054600181600116156101000203166002900480156104bd5780601f10610492576101008083540402835291602001916104bd565b820191906000526020600020905b8154815290600101906020018083116104a057829003601f168201915b50505050509050919050565b6060600160003373ffffffffffffffffffffffffffffffffffffffff1673ffffffffffffffffffffffffffffffffffffffff1681526020019081526020016000208054600181600116156101000203166002900480601f01602080910402602001604051908101604052809291908181526020018280546001816001161561010002031660029004801561059e5780601f106105735761010080835404028352916020019161059e565b820191906000526020600020905b81548152906001019060200180831161058157829003601f168201915b5050505050905060008151141561061c577f2974ec83b4de9f76155d0c3e88bd3c0645c56c1795807f37d3f9e95caafeee5760405180806020018281038252600b8152602001807f456d70747920496e626f7800000000000000000000000000000000000000000081525060200191505060405180910390a161071d565b6020604051908101604052806000815250600160003373ffffffffffffffffffffffffffffffffffffffff1673ffffffffffffffffffffffffffffffffffffffff168152602001908152602001600020908051906020019061067f929190610937565b507f2974ec83b4de9f76155d0c3e88bd3c0645c56c1795807f37d3f9e95caafeee57816040518080602001828103825283818151815260200191508051906020019080838360005b838110156106e25780820151818401526020810190506106c7565b50505050905090810190601f16801561070f5780820380516001836020036101000a031916815260200191505b509250505060405180910390a15b50565b600160008373ffffffffffffffffffffffffffffffffffffffff1673ffffffffffffffffffffffffffffffffffffffff1681526020019081526020016000208054600181600116156101000203166002900480601f0160208091040260200160405190810160405280929190818152602001828054600181600116156101000203166002900480156107f35780601f106107c8576101008083540402835291602001916107f3565b820191906000526020600020905b8154815290600101906020018083116107d657829003601f168201915b505050505060608190506000815114151561080d57600080fd5b82600160008673ffffffffffffffffffffffffffffffffffffffff1673ffffffffffffffffffffffffffffffffffffffff1681526020019081526020016000209080519060200190610860929190610937565b507fd3896131bca4353bcda578f36768163e2ca77cefb2988be6c4e81939ca298ac0838560405180806020018373ffffffffffffffffffffffffffffffffffffffff1673ffffffffffffffffffffffffffffffffffffffff168152602001828103825284818151815260200191508051906020019080838360005b838110156108f65780820151818401526020810190506108db565b50505050905090810190601f1680156109235780820380516001836020036101000a031916815260200191505b50935050505060405180910390a150505050565b828054600181600116156101000203166002900490600052602060002090601f016020900481019282601f1061097857805160ff19168380011785556109a6565b828001600101855582156109a6579182015b828111156109a557825182559160200191906001019061098a565b5b5090506109b391906109b7565b5090565b6109d991905b808211156109d55760008160009055506001016109bd565b5090565b9056fea165627a7a723058203f1a02b69ca5fc0764b492c421879640400bf1d5dada265a8367cc5f393cd6bb0029",
  "source": "pragma solidity ^0.5.0;\n\n/// @author Chris Spannos\n/// @title Decentalized Notary\ncontract Notary {\n    string ipfsHash;\n\n    /// Grabs the IPFS file hash based on the address.\n    mapping (address => string) ipfsInbox;\n\n    /// ipfsSent sends the IPFS file hash to a recipient.\n    event ipfsSent(string _ipfsHash, address _address);\n\n    /// inboxResponse sends a notification to the user that they have a message waiting.\n    event inboxResponse(string response);\n\n    /// returnipfsHash calls the IPFS file hash for display in the TX receipt.\n    event returnipfsHash(string ipfsEth);\n\n    /// Modifiers are used here to check the account state in the function 'sendIPFS' for account notificaitons.\n    modifier notFull (string memory _string) {bytes memory stringTest = bytes(_string); require (stringTest.length == 0); _;}\n\n    /// This empty constructor is used to initialize the contract.\n    constructor() public {\n\n    }\n\n    /// Store 'x' (the IPFS file hash) in the contract state.\n    /// @param x the new value to store.\n    /// @dev stores the IPFS file hash in the state variable 'setHash'.\n    function setHash(string memory x) public {\n      ipfsHash = x;\n    }\n\n    /// Return 'x' (the IPFS file hash) from the contract memory.\n    /// @param x is the verified IPFS file hash.\n    /// @dev returns the IPFS file hash when state variable 'getHash is called'.\n    function getHash(string memory ipfsEth) public returns (string memory x) {\n      emit returnipfsHash(ipfsEth);\n      return ipfsHash;\n    }\n\n    /// The IPFS file hash is sent to a recipeint account.\n    /// @param _ipfsHash is the value called from the contact state.\n    /// @dev sendIPFS sends the file hash to '_address'.\n    function sendIPFS(address _address, string memory _ipfsHash)\n        notFull(ipfsInbox[_address])\n        public\n    {\n       ipfsInbox[_address] = _ipfsHash;\n       emit ipfsSent(_ipfsHash, _address);\n    }\n\n    /// This function checks the value of 'ipfs_hash' to see if it is storing bytes.\n    /// If the value is storing 0 > bytes it emits a notificaitons.\n    /// @dev 'checkInbox checks 'ipfs_hash' and, if there is 0 > bytes emits and responce to the account checking.\n    function checkInbox()\n        public\n    {\n        string memory ipfs_hash = ipfsInbox[msg.sender];\n        if(bytes(ipfs_hash).length == 0) {\n            emit inboxResponse(\"Empty Inbox\");\n        } else {\n            ipfsInbox[msg.sender] = \"\";\n            emit inboxResponse(ipfs_hash);\n        }\n    }\n}\n",
  "sourcePath": "/home/shevek/Documents/blockchain/decentralized-notary/contracts/Notary.sol",
  "compiler": {
    "name": "solc",
    "version": "0.5.0+commit.1d4f565a.Emscripten.clang"
  },
  "schemaVersion": "3.0.1",
  "updatedAt": "2019-01-26T23:40:22.851Z",
  "devdoc": {
    "author": "Chris Spannos",
    "methods": {
      "checkInbox()": {
        "details": "'checkInbox checks 'ipfs_hash' and, if there is 0 > bytes emits and responce to the account checking."
      },
      "getHash(string)": {
        "details": "returns the IPFS file hash when state variable 'getHash is called'.",
        "params": {
          "x": "is the verified IPFS file hash."
        }
      },
      "sendIPFS(address,string)": {
        "details": "sendIPFS sends the file hash to '_address'.",
        "params": {
          "_ipfsHash": "is the value called from the contact state."
        }
      },
      "setHash(string)": {
        "details": "stores the IPFS file hash in the state variable 'setHash'.",
        "params": {
          "x": "the new value to store."
        }
      }
    },
    "title": "Decentalized Notary"
  },
  "userdoc": {
    "methods": {
      "checkInbox()": {
        "notice": "This function checks the value of 'ipfs_hash' to see if it is storing bytes. If the value is storing 0 > bytes it emits a notificaitons."
      },
      "constructor": "This empty constructor is used to initialize the contract.",
      "getHash(string)": {
        "notice": "Return 'x' (the IPFS file hash) from the contract memory."
      },
      "sendIPFS(address,string)": {
        "notice": "The IPFS file hash is sent to a recipeint account."
      },
      "setHash(string)": {
        "notice": "Store 'x' (the IPFS file hash) in the contract state."
      }
    }
  }
}